:100000000C942A000C943C000C943C000C943C0092
:100010000C943C000C943C000C943C000C943C0070
:100020000C943C000C943C000C943C000C940F028B
:100030000C943C000C943C000C943C000C943C0050
:100040000C943C000C943C000C943C000C943C0040
:100050000C943C0011241FBECFE5D8E0DEBFCDBF1D
:1000600020E0A0E6B0E001C01D92AD36B207E1F796
:100070000E9455010C9485060C94000041E050E06C
:1000800061E070E082E090E00E94710241E050E0A7
:1000900062E070E082E090E00E94710241E050E096
:1000A00064E070E082E090E00E94710241E050E084
:1000B00065E070E082E090E00E94710241E050E073
:1000C00066E070E082E090E00E94710241E050E062
:1000D00067E070E082E090E00E94710241E050E051
:1000E00065E070E082E090E00E94F80241E050E0BC
:1000F00067E070E082E090E00E94F802089541E03D
:1001000050E065E070E082E090E00E94F80240E09C
:1001100050E064E070E082E090E00E94F80241E08C
:1001200050E067E070E082E090E00E94F80240E07A
:1001300050E066E070E082E090E00E94F8020895EE
:1001400040E050E065E070E082E090E00E94F8025C
:1001500041E050E064E070E082E090E00E94F8024C
:1001600040E050E067E070E082E090E00E94F8023A
:1001700041E050E066E070E082E090E00E94F8022A
:10018000089541E050E065E070E082E090E00E9478
:10019000F80240E050E064E070E082E090E00E940D
:1001A000F80240E050E067E070E082E090E00E94FA
:1001B000F80241E050E066E070E082E090E00E94EA
:1001C000F802089540E050E065E070E082E090E0E1
:1001D0000E94F80241E050E064E070E082E090E0CC
:1001E0000E94F80241E050E067E070E082E090E0B9
:1001F0000E94F80240E050E066E070E082E090E0AB
:100200000E94F802089540E050E061E070E082E072
:1002100090E00E94F80240E050E062E070E082E08E
:1002200090E00E94F802089540E050E061E070E044
:1002300081E090E00E94710240E050E063E070E0F5
:1002400081E090E00E94710240E050E065E070E0E3
:1002500081E090E00E94710240E050E067E070E0D1
:1002600081E090E00E94710241E050E061E070E0C6
:1002700081E090E00E94F80241E050E063E070E02D
:1002800081E090E00E94F80241E050E065E070E01B
:1002900081E090E00E94F80241E050E067E070E009
:1002A00081E090E00E94F80208950E9414010E94EB
:1002B0003E000E947204C1E0D0E001E010E00F2E89
:1002C000FEE1EF2EF12CF02D0F2EFEE1CF2EF02DC2
:1002D000D12C6894AA24A1F8B12C1BC089B78160E5
:1002E00089BF0130110519F40E947F0005C002305A
:1002F000110511F40E94A000B7010F2C000C880B0F
:10030000990B0E948C0520E030E04CE452E40E94FE
:10031000010465E070E081E090E00E947F038823A3
:10032000E9F20E94DB0389B78E7F89BF0E94030137
:100330000FC089B7816089BF0E94C10020E030E012
:100340004CE452E460E070E080EF91E40E9401042C
:1003500061E070E081E090E00E947F03882349F330
:100360000E94DB0389B78E7F89BF0E9403010FC003
:1003700089B7816089BF0E94E20020E030E04CE450
:1003800052E460E070E080EF91E40E94010463E0D9
:1003900070E081E090E00E947F03882349F30E948F
:1003A000DB0389B78E7F89BF0E94030167E070E09D
:1003B00081E090E00E947F038111ABCF2196C13094
:1003C000D10581F0C230D10591F0C330D105B9F02B
:1003D000C430D105D9F4C0E0D0E00A2D1B2DEC2C9F
:1003E000FD2C14C001E010E0EC2CFD2C0FC001E04E
:1003F00010E00F2EFCE3EF2EF12CF02D07C001E0F2
:1004000010E00F2EFAE5EF2EF12CF02D67E070E0F2
:1004100081E090E00E947F038823C1F37ACF1F928E
:100420000F920FB60F9211242F933F934F935F9328
:100430006F937F938F939F93AF93BF93EF93FF93AC
:100440008091600081111FC041E050E061E070E0E8
:1004500082E090E00E94F80241E050E062E070E04B
:1004600082E090E00E94F802609165007091660061
:1004700080916700909168000E945B0562BF81E0F7
:10048000809360001DC040E050E061E070E082E0D9
:1004900090E00E94F80240E050E062E070E082E00C
:1004A00090E00E94F802609161007091620080917A
:1004B0006300909164000E945B0562BF109260002F
:1004C000FF91EF91BF91AF919F918F917F916F912C
:1004D0005F914F913F912F910F900FBE0F901F9002
:1004E00018958230910551F11CF4019749F0089557
:1004F0008330910509F440C0049709F45BC0089566
:100500004115510521F04130510569F008952AB394
:1005100081E090E002C0880F991F6A95E2F780950C
:1005200082238ABB08952AB381E090E002C0880F3D
:10053000991F6A95E2F7822B8ABB089541155105F0
:1005400021F04130510569F0089527B381E090E032
:1005500002C0880F991F6A95E2F78095822387BBB6
:10056000089527B381E090E002C0880F991F6A9533
:10057000E2F7822B87BB08954115510521F04130E8
:10058000510569F0089524B381E090E002C0880F1E
:10059000991F6A95E2F78095822384BB089524B35E
:1005A00081E090E002C0880F991F6A95E2F7822BE4
:1005B00084BB08954115510521F04130510569F082
:1005C000089521B381E090E002C0880F991F6A95D9
:1005D000E2F78095822381BB089521B381E090E00A
:1005E00002C0880F991F6A95E2F7822B81BB08959C
:1005F0008230910551F11CF4019749F00895833040
:10060000910509F440C0049709F45BC008954115B1
:10061000510521F04130510569F008952BB381E077
:1006200090E002C0880F991F6A95E2F780958223B7
:100630008BBB08952BB381E090E002C0880F991F17
:100640006A95E2F7822B8BBB08954115510521F085
:100650004130510569F0089528B381E090E002C06F
:10066000880F991F6A95E2F78095822388BB0895C9
:1006700028B381E090E002C0880F991F6A95E2F7E5
:10068000822B88BB08954115510521F04130510559
:1006900069F0089525B381E090E002C0880F991FAA
:1006A0006A95E2F78095822385BB089525B381E0A2
:1006B00090E002C0880F991F6A95E2F7822B85BBF4
:1006C00008954115510521F04130510569F0089513
:1006D00022B381E090E002C0880F991F6A95E2F78B
:1006E0008095822382BB089522B381E090E002C00E
:1006F000880F991F6A95E2F7822B82BB089582309A
:10070000910599F01CF4019739F02AC083309105C6
:10071000A9F00497E1F024C089B390E002C0959558
:1007200087956A95E2F78170089586B390E002C0DC
:10073000959587956A95E2F78170089583B390E067
:1007400002C0959587956A95E2F78170089580B308
:1007500090E002C0959587956A95E2F781700895BB
:1007600080E00895009719F483B783BF089581301E
:10077000910521F483B7816083BF08958830910586
:1007800021F483B7826083BF08958034910521F4FA
:1007900083B7836083BF0895811521E0920721F418
:1007A00083B7846083BF08958115944019F483B79B
:1007B000856083BF089588B7816088BF80E090E03E
:1007C0000E94B2030895811104C083B7877B83BF61
:1007D0000895813039F483B7886083BF83B78F7BF6
:1007E00083BF0895823039F483B7806483BF83B7B1
:1007F000877F83BF0895833019F483B7886483BFEC
:1008000008958F929F92AF92BF92CF92DF92EF9214
:10081000FF924B015C0160E070E080E89FE30E9482
:10082000E9046B017C016093690070936A00809316
:100830006B0090936C00A50194010E94180620E0C3
:1008400030E048EC52E40E94E9044B015C0120E0F6
:1008500034E244E759E40E94180620E030E040E822
:100860005BE30E9418069B01AC0160E070E08FE73B
:1008700093E40E947C04609365007093660080930B
:10088000670090936800A5019401C701B6010E941A
:100890007C0420E034E244E759E40E94180620E09A
:1008A00030E040E85BE30E9418069B01AC0160E089
:1008B00070E08FE793E40E947C0460936100709382
:1008C0006200809363009093640080E091E00E9456
:1008D000B203FF90EF90DF90CF90BF90AF909F90CA
:1008E0008F90089580E00E94E30389B7816089BFFB
:1008F0008FB780688FBF08955058BB27AA270E94E2
:1009000094040C94DE050E94D00538F00E94D705AF
:1009100020F039F49F3F19F426F40C94CD050EF421
:10092000E095E7FB0C94C705E92F0E94EF0558F30B
:10093000BA17620773078407950720F079F4A6F5C4
:100940000C9411060EF4E0950B2EBA2FA02D0B017E
:10095000B90190010C01CA01A0011124FF27591B04
:1009600099F0593F50F4503E68F11A16F040A22F0A
:10097000232F342F4427585FF3CF4695379527957B
:10098000A795F0405395C9F77EF41F16BA0B620B7A
:10099000730B840BBAF09150A1F0FF0FBB1F661FC1
:1009A000771F881FC2F70EC0BA0F621F731F841F04
:1009B00048F4879577956795B795F7959E3F08F02A
:1009C000B0CF9395880F08F09927EE0F97958795EC
:1009D00008950E94FD040C94DE050E94D70558F08E
:1009E0000E94D00540F029F45F3F29F00C94C70520
:1009F00051110C9412060C94CD050E94EF0568F37A
:100A00009923B1F3552391F3951B550BBB27AA27C7
:100A100062177307840738F09F5F5F4F220F331F01
:100A2000441FAA1FA9F335D00E2E3AF0E0E832D0C9
:100A300091505040E695001CCAF72BD0FE2F29D0CC
:100A4000660F771F881FBB1F261737074807AB079E
:100A5000B0E809F0BB0B802DBF01FF2793585F4F13
:100A60003AF09E3F510578F00C94C7050C9412069D
:100A70005F3FE4F3983ED4F3869577956795B795F5
:100A8000F7959F5FC9F7880F911D9695879597F900
:100A90000895E1E0660F771F881FBB1F6217730779
:100AA0008407BA0720F0621B730B840BBA0BEE1F8E
:100AB00088F7E09508950E94F70588F09F5798F011
:100AC000B92F9927B751B0F0E1F0660F771F881F53
:100AD000991F1AF0BA95C9F714C0B13091F00E946D
:100AE0001106B1E008950C941106672F782F88271E
:100AF000B85F39F0B93FCCF3869577956795B39594
:100B0000D9F73EF490958095709561957F4F8F4F02
:100B10009F4F0895E89409C097FB3EF49095809507
:100B2000709561957F4F8F4F9F4F9923A9F0F92FB3
:100B300096E9BB279395F695879577956795B79531
:100B4000F111F8CFFAF4BB0F11F460FF1BC06F5F17
:100B50007F4F8F4F9F4F16C0882311F096E911C029
:100B6000772321F09EE8872F762F05C0662371F04A
:100B700096E8862F70E060E02AF09A95660F771F5E
:100B8000881FDAF7880F9695879597F9089597F952
:100B90009F6780E870E060E008959FEF80EC089523
:100BA00000240A941616170618060906089500244C
:100BB0000A9412161306140605060895092E0394C6
:100BC000000C11F4882352F0BB0F40F4BF2B11F43A
:100BD00060FF04C06F5F7F4F8F4F9F4F089557FD99
:100BE0009058440F551F59F05F3F71F04795880F9B
:100BF00097FB991F61F09F3F79F087950895121632
:100C000013061406551FF2CF4695F1DF08C01616DD
:100C100017061806991FF1CF86957105610508948E
:100C20000895E894BB2766277727CB0197F90895A5
:100C30000E942B060C94DE050E94D00538F00E941D
:100C4000D70520F0952311F00C94C7050C94CD0521
:100C500011240C9412060E94EF0570F3959FC1F3C6
:100C6000950F50E0551F629FF001729FBB27F00D5A
:100C7000B11D639FAA27F00DB11DAA1F649F6627AF
:100C8000B00DA11D661F829F2227B00DA11D621FFE
:100C9000739FB00DA11D621F839FA00D611D221FB8
:100CA000749F3327A00D611D231F849F600D211D9C
:100CB000822F762F6A2F11249F5750409AF0F1F01F
:100CC00088234AF0EE0FFF1FBB1F661F771F881F88
:100CD00091505040A9F79E3F510580F00C94C705F4
:100CE0000C9412065F3FE4F3983ED4F38695779513
:100CF0006795B795F795E7959F5FC1F7FE2B880F2E
:0E0D0000911D9695879597F90895F894FFCF69
:00000001FF
