:100000000C942A000C9447000C9447000C94470071
:100010000C9447000C9447000C9447000C94470044
:100020000C9447000C9447000C9447000C949902E0
:100030000C9447000C9447000C9447000C94470024
:100040000C9447000C9447000C9447000C94470014
:100050000C94470011241FBECFE5D8E0DEBFCDBF12
:1000600010E0A0E6B0E0EAEEFDE002C005900D92DF
:10007000AA36B107D9F720E0AAE6B0E001C01D9288
:10008000A737B207E1F70E9494020C94F3060C9490
:1000900000000E94E0040E946F010E947200089517
:1000A00002C00E94B0010E945C02892BD1F70E941D
:1000B000370102C00E94E0010E946A02892BD1F739
:1000C0000E94370102C00E94F4010E947802892B2D
:1000D000D1F70E9437010E948602892B11F00E94FD
:1000E0000802089541E050E061E070E082E090E0B5
:1000F0000E94DF0241E050E062E070E082E090E0C8
:100100000E94DF0241E050E064E070E082E090E0B5
:100110000E94DF0241E050E065E070E082E090E0A4
:100120000E94DF0241E050E066E070E082E090E093
:100130000E94DF0241E050E067E070E082E090E082
:100140000E94DF0241E050E065E070E082E090E074
:100150000E94660341E050E067E070E082E090E0DA
:100160000E946603089541E050E065E070E082E09F
:1001700090E00E94660340E050E064E070E082E0BE
:1001800090E00E94660341E050E067E070E082E0AA
:1001900090E00E94660340E050E066E070E082E09C
:1001A00090E00E946603089540E050E065E070E052
:1001B00082E090E00E94660341E050E064E070E07D
:1001C00082E090E00E94660340E050E067E070E06B
:1001D00082E090E00E94660341E050E066E070E05B
:1001E00082E090E00E946603089541E050E065E0FF
:1001F00070E082E090E00E94660340E050E064E03E
:1002000070E082E090E00E94660340E050E067E02A
:1002100070E082E090E00E94660341E050E066E01A
:1002200070E082E090E00E946603089540E050E0B4
:1002300065E070E082E090E00E94660341E050E0FB
:1002400064E070E082E090E00E94660341E050E0EC
:1002500067E070E082E090E00E94660340E050E0DA
:1002600066E070E082E090E00E94660308950E94DC
:10027000490489B78E7F89BF40E050E061E070E0BB
:1002800082E090E00E94660340E050E062E070E0AF
:1002900082E090E00E946603089541E050E061E052
:1002A00070E082E090E00E94660341E050E062E08E
:1002B00070E082E090E00E946603089540E050E024
:1002C00061E070E082E090E00E94660340E050E070
:1002D00062E070E082E090E00E946603089540E0F2
:1002E00050E061E070E081E090E00E94DF0240E0D9
:1002F00050E063E070E081E090E00E94DF0240E0C7
:1003000050E065E070E081E090E00E94DF0240E0B4
:1003100050E067E070E081E090E00E94DF0241E0A1
:1003200050E061E070E081E090E00E94660341E00F
:1003300050E063E070E081E090E00E94660341E0FD
:1003400050E065E070E081E090E00E94660341E0EB
:1003500050E067E070E081E090E00E94660308955D
:10036000CF92DF92EF92FF9289B7816089BF80912F
:100370006800909169008130910519F40E94B300E2
:1003800004C0029711F40E94D400C0906400D09081
:100390006500E0906600F0906700609162007091E7
:1003A0006300072E000C880B990B0E94FA05A70129
:1003B00096010E946F04FF90EF90DF90CF90089518
:1003C00089B7816089BF0E94F50020916400309157
:1003D0006500409166005091670060E070E080EF3A
:1003E00091E40E946F04089589B7816089BF0E94DB
:1003F0001601209164003091650040916600509193
:10040000670060E070E080EF91E40E946F0408955F
:1004100080916000909161000196909361008093BB
:1004200060008130910569F48EE190E09093630063
:100430008093620081E090E090936900809368006F
:1004400032C08230910569F48CE390E090936300B0
:100450008093620081E090E090936900809368004F
:1004600022C08330910569F48AE590E0909363009F
:100470008093620081E090E090936900809368002F
:1004800012C0049781F48EE190E090936300809312
:10049000620082E090E0909369008093680010927F
:1004A00061001092600067E070E081E090E00E94DF
:1004B000ED038823C1F3089565E070E081E090E0EA
:1004C0000E94ED0321E030E0882311F020E030E0CD
:1004D000C901089561E070E081E090E00E94ED03C1
:1004E00021E030E0882311F020E030E0C9010895D8
:1004F00063E070E081E090E00E94ED0321E030E0F5
:10050000882311F020E030E0C901089567E070E031
:1005100081E090E00E94ED0321E030E0882311F0BB
:1005200020E030E0C90108950E9449000E94500077
:10053000FDCF1F920F920FB60F9211242F933F936E
:100540004F935F936F937F938F939F93AF93BF93DB
:10055000EF93FF9380916A00811111C00E944D01B9
:1005600060916F00709170008091710090917200A5
:100570000E94C90562BF81E080936A000FC00E949B
:100580005E0160916B0070916C0080916D009091A4
:100590006E000E94C90562BF10926A00FF91EF9140
:1005A000BF91AF919F918F917F916F915F914F918B
:1005B0003F912F910F900FBE0F901F901895823092
:1005C000910551F11CF4019749F00895833091058C
:1005D00009F440C0049709F45BC008954115510522
:1005E00021F04130510569F008952AB381E090E08F
:1005F00002C0880F991F6A95E2F7809582238ABB13
:1006000008952AB381E090E002C0880F991F6A958F
:10061000E2F7822B8ABB08954115510521F0413044
:10062000510569F0089527B381E090E002C0880F7A
:10063000991F6A95E2F78095822387BB089527B3B7
:1006400081E090E002C0880F991F6A95E2F7822B43
:1006500087BB08954115510521F04130510569F0DE
:10066000089524B381E090E002C0880F991F6A9535
:10067000E2F78095822384BB089524B381E090E063
:1006800002C0880F991F6A95E2F7822B84BB0895F8
:100690004115510521F04130510569F0089521B30C
:1006A00081E090E002C0880F991F6A95E2F780957B
:1006B000822381BB089521B381E090E002C0880FBE
:1006C000991F6A95E2F7822B81BB089582309105CC
:1006D00051F11CF4019749F008958330910509F414
:1006E00040C0049709F45BC008954115510521F0FD
:1006F0004130510569F008952BB381E090E002C0CC
:10070000880F991F6A95E2F7809582238BBB089525
:100710002BB381E090E002C0880F991F6A95E2F741
:10072000822B8BBB08954115510521F041305105B5
:1007300069F0089528B381E090E002C0880F991F06
:100740006A95E2F78095822388BB089528B381E0FB
:1007500090E002C0880F991F6A95E2F7822B88BB50
:1007600008954115510521F04130510569F0089572
:1007700025B381E090E002C0880F991F6A95E2F7E7
:100780008095822385BB089525B381E090E002C067
:10079000880F991F6A95E2F7822B85BB0895411552
:1007A000510521F04130510569F0089522B381E0EF
:1007B00090E002C0880F991F6A95E2F78095822326
:1007C00082BB089522B381E090E002C0880F991F98
:1007D0006A95E2F7822B82BB08958230910599F0E9
:1007E0001CF4019739F02AC083309105A9F00497D1
:1007F000E1F024C089B390E002C0959587956A9591
:10080000E2F78170089586B390E002C095958795D0
:100810006A95E2F78170089583B390E002C09595E0
:1008200087956A95E2F78170089580B390E002C0E1
:10083000959587956A95E2F78170089580E008950F
:10084000009719F483B783BF08958130910521F48F
:1008500083B7816083BF08958830910521F483B701
:10086000826083BF08958034910521F483B783604B
:1008700083BF0895811521E0920721F483B7846036
:1008800083BF08958115944019F483B7856083BFB1
:10089000089588B7816088BF80E090E00E942004BE
:1008A0000895811104C083B7877B83BF0895813089
:1008B00039F483B7886083BF83B78F7B83BF089584
:1008C000823039F483B7806483BF83B7877F83BF67
:1008D0000895833019F483B7886483BF08958F9295
:1008E0009F92AF92BF92CF92DF92EF92FF924B0115
:1008F0005C0160E070E080E89FE30E9457056B01B7
:100900007C016093730070937400809375009093E2
:100910007600A50194010E94860620E030E048ECB4
:1009200052E40E9457054B015C0120E034E244E7A9
:1009300059E40E94860620E030E040E85BE30E9434
:1009400086069B01AC0160E070E08FE793E40E94B3
:10095000EA0460936F00709370008093710090932D
:100960007200A5019401C701B6010E94EA0420E0CB
:1009700034E244E759E40E94860620E030E040E893
:100980005BE30E9486069B01AC0160E070E08FE7AC
:1009900093E40E94EA0460936B0070936C00809370
:1009A0006D0090936E0080E091E00E942004FF9023
:1009B000EF90DF90CF90BF90AF909F908F90089571
:1009C00080E00E94510489B7816089BF8FB7806839
:1009D0008FBF08955058BB27AA270E9402050C9488
:1009E0004C060E943E0638F00E94450620F039F47D
:1009F0009F3F19F426F40C943B060EF4E095E7FBB8
:100A00000C943506E92F0E945D0658F3BA17620769
:100A100073078407950720F079F4A6F50C947F06F8
:100A20000EF4E0950B2EBA2FA02D0B01B901900109
:100A30000C01CA01A0011124FF27591B99F0593F4D
:100A400050F4503E68F11A16F040A22F232F342F95
:100A50004427585FF3CF469537952795A795F040E3
:100A60005395C9F77EF41F16BA0B620B730B840BF8
:100A7000BAF09150A1F0FF0FBB1F661F771F881FB0
:100A8000C2F70EC0BA0F621F731F841F48F4879508
:100A900077956795B795F7959E3F08F0B0CF9395FA
:100AA000880F08F09927EE0F9795879508950E9473
:100AB0006B050C944C060E94450658F00E943E06B9
:100AC00040F029F45F3F29F00C94350651110C9445
:100AD00080060C943B060E945D0668F39923B1F3EF
:100AE000552391F3951B550BBB27AA276217730754
:100AF000840738F09F5F5F4F220F331F441FAA1FE8
:100B0000A9F335D00E2E3AF0E0E832D091505040A3
:100B1000E695001CCAF72BD0FE2F29D0660F771F51
:100B2000881FBB1F261737074807AB07B0E809F037
:100B3000BB0B802DBF01FF2793585F4F3AF09E3FBC
:100B4000510578F00C9435060C9480065F3FE4F371
:100B5000983ED4F3869577956795B795F7959F5FFF
:100B6000C9F7880F911D9695879597F90895E1E04B
:100B7000660F771F881FBB1F621773078407BA07AA
:100B800020F0621B730B840BBA0BEE1F88F7E09505
:100B900008950E94650688F09F5798F0B92F99270D
:100BA000B751B0F0E1F0660F771F881F991F1AF058
:100BB000BA95C9F714C0B13091F00E947F06B1E038
:100BC00008950C947F06672F782F8827B85F39F037
:100BD000B93FCCF3869577956795B395D9F73EF4F1
:100BE00090958095709561957F4F8F4F9F4F089599
:100BF000E89409C097FB3EF49095809570956195B7
:100C00007F4F8F4F9F4F9923A9F0F92F96E9BB276C
:100C10009395F695879577956795B795F111F8CFE8
:100C2000FAF4BB0F11F460FF1BC06F5F7F4F8F4F53
:100C30009F4F16C0882311F096E911C0772321F049
:100C40009EE8872F762F05C0662371F096E8862FE1
:100C500070E060E02AF09A95660F771F881FDAF738
:100C6000880F9695879597F9089597F99F6780E87B
:100C700070E060E008959FEF80EC089500240A94EE
:100C80001616170618060906089500240A94121667
:100C90001306140605060895092E0394000C11F49A
:100CA000882352F0BB0F40F4BF2B11F460FF04C047
:100CB0006F5F7F4F8F4F9F4F089557FD9058440FA0
:100CC000551F59F05F3F71F04795880F97FB991FAB
:100CD00061F09F3F79F08795089512161306140668
:100CE000551FF2CF4695F1DF08C0161617061806F5
:100CF000991FF1CF86957105610508940895E894D0
:100D0000BB2766277727CB0197F908950E9499069C
:100D10000C944C060E943E0638F00E94450620F0D6
:100D2000952311F00C9435060C943B0611240C9479
:100D300080060E945D0670F3959FC1F3950F50E009
:100D4000551F629FF001729FBB27F00DB11D639F7D
:100D5000AA27F00DB11DAA1F649F6627B00DA11D23
:100D6000661F829F2227B00DA11D621F739FB00DC9
:100D7000A11D621F839FA00D611D221F749F332739
:100D8000A00D611D231F849F600D211D822F762FD2
:100D90006A2F11249F5750409AF0F1F088234AF0AF
:100DA000EE0FFF1FBB1F661F771F881F915050401B
:100DB000A9F79E3F510580F00C9435060C948006EF
:100DC0005F3FE4F3983ED4F3869577956795B795A2
:100DD000F795E7959F5FC1F7FE2B880F911D9695BC
:0A0DE000879597F90895F894FFCF66
:0A0DEA0001001E0000004C42010051
:00000001FF
