S017000063617246696E616C50726F6A6563742E7372656316
S11300000C942A000C9447000C9447000C9447006D
S11300100C9447000C9447000C9447000C94470040
S11300200C9447000C9447000C9447000C94F9027C
S11300300C9447000C9447000C9447000C94470020
S11300400C9447000C9447000C9447000C94470010
S11300500C94470011241FBECFE5D8E0DEBFCDBF0E
S113006010E0A0E6B0E0E6E0FCE002C005900D92EE
S1130070A836B107D9F720E0A8E6B0E001C01D9288
S1130080A537B207E1F70E9449000C9401060C94CD
S1130090000040E050E061E070E081E090E00E9408
S11300A0B80140E050E063E070E081E090E00E943D
S11300B0B80140E050E065E070E081E090E00E942B
S11300C0B80140E050E067E070E081E090E00E9419
S11300D0B80141E050E061E070E081E090E00E940E
S11300E03F0241E050E063E070E081E090E00E9474
S11300F03F0241E050E065E070E081E090E00E9462
S11301003F0241E050E067E070E081E090E00E944F
S11301103F0241E050E061E070E082E090E00E9444
S1130120B80141E050E062E070E082E090E00E94BB
S1130130B80141E050E064E070E082E090E00E94A9
S1130140B80141E050E065E070E082E090E00E9498
S1130150B80141E050E066E070E082E090E00E9487
S1130160B80141E050E067E070E082E090E00E9476
S1130170B80141E050E065E070E082E090E00E9468
S11301803F0241E050E067E070E082E090E00E94CE
S11301903F0280E00E946B0389B7816089BF8FB7FB
S11301A080688FBF01E010E00F2EFEE1EF2EF12CEE
S11301B0F02DC2E0D0E00F2EFAE56F2E712CF02D59
S11301C00F2EFCE3CF2ED12CF02D16C080906000B2
S11301D090906100A0906200B0906300609166000E
S11301E070916700072E000C880B990B0E9408057C
S11301F0A50194010E94870365E070E081E090E02E
S11302000E94C602882311F30E9463032AC041E0BE
S113021050E065E070E0CE010E943F0240E050E013
S113022064E070E0CE010E943F0240E050E067E0ED
S113023070E0CE010E943F0241E050E066E070E0D1
S1130240CE010E943F0220916000309161004091F4
S113025062005091630060E070E080EF91E40E94DE
S1130260870361E070E081E090E00E94C602882389
S113027071F20E9463032AC040E050E065E070E040
S1130280CE010E943F0241E050E064E070E0CE0104
S11302900E943F0241E050E067E070E0CE010E941E
S11302A03F0240E050E066E070E0CE010E943F0271
S11302B02091600030916100409162005091630090
S11302C060E070E080EF91E40E94870363E070E0F7
S11302D081E090E00E94C602882371F20E946303C9
S11302E067E070E081E090E00E94C602811184CF53
S11302F00F5F1F4F0130110559F4F0926700E0922F
S1130300660081E090E0909365008093640027C0CC
S11303100230110559F4D0926700C092660081E062
S113032090E0909365008093640019C00330110538
S113033059F4709267006092660081E090E09093B7
S11303406500809364000BC00430110541F4F09201
S11303506700E0926600D0936500C093640067E094
S113036070E081E090E00E94C6028823C1F344CF8C
S11303708230910551F11CF4019749F008958330BE
S1130380910509F440C0049709F45BC00895411530
S1130390510521F04130510569F008952AB381E0F7
S11303A090E002C0880F991F6A95E2F78095822336
S11303B08ABB08952AB381E090E002C0880F991F98
S11303C06A95E2F7822B8ABB08954115510521F005
S11303D04130510569F0089527B381E090E002C0EF
S11303E0880F991F6A95E2F78095822387BB089549
S11303F027B381E090E002C0880F991F6A95E2F765
S1130400822B87BB08954115510521F041305105D8
S113041069F0089524B381E090E002C0880F991F29
S11304206A95E2F78095822384BB089524B381E022
S113043090E002C0880F991F6A95E2F7822B84BB73
S113044008954115510521F04130510569F0089591
S113045021B381E090E002C0880F991F6A95E2F70A
S11304608095822381BB089521B381E090E002C08E
S1130470880F991F6A95E2F7822B81BB0895823019
S1130480910551F11CF4019749F0089583309105C9
S113049009F440C0049709F45BC00895411551055F
S11304A021F04130510569F008952BB381E090E0CB
S11304B002C0880F991F6A95E2F7809582238BBB4F
S11304C008952BB381E090E002C0880F991F6A95CC
S11304D0E2F7822B8BBB08954115510521F0413081
S11304E0510569F0089528B381E090E002C0880FB7
S11304F0991F6A95E2F78095822388BB089528B3F3
S113050081E090E002C0880F991F6A95E2F7822B80
S113051088BB08954115510521F04130510569F01A
S1130520089525B381E090E002C0880F991F6A9571
S1130530E2F78095822385BB089525B381E090E09E
S113054002C0880F991F6A95E2F7822B85BB089534
S11305504115510521F04130510569F0089522B348
S113056081E090E002C0880F991F6A95E2F78095B8
S1130570822382BB089522B381E090E002C0880FF9
S1130580991F6A95E2F7822B82BB08958230910508
S113059099F01CF4019739F02AC083309105A9F031
S11305A00497E1F024C089B390E002C09595879543
S11305B06A95E2F78170089586B390E002C095953C
S11305C087956A95E2F78170089583B390E002C03D
S11305D0959587956A95E2F78170089580B390E0C8
S11305E002C0959587956A95E2F78170089580E039
S11305F008958091740081111FC041E050E061E0D2
S113060070E082E090E00E943F0241E050E062E04E
S113061070E082E090E00E943F0260916800709177
S1130620690080916A0090916B000E94D70462BFB8
S113063081E080937400089540E050E061E070E050
S113064082E090E00E943F0240E050E062E070E00F
S113065082E090E00E943F0260916C0070916D0016
S113066080916E0090916F000E94D70462BF109237
S113067074000895009719F483B783BF08958130F7
S1130680910521F483B7816083BF08958830910573
S113069021F483B7826083BF08958034910521F4E7
S11306A083B7836083BF0895811521E0920721F405
S11306B083B7846083BF08958115944019F483B788
S11306C0856083BF089588B7816088BF80E090E02B
S11306D00E943A030895811104C083B7877B83BFC6
S11306E00895813031F483B7886083BF83B713BE24
S11306F00895823031F483B7806483BF83B713BE17
S11307000895833019F483B7886483BF08958F9262
S11307109F92AF92BF92CF92DF92EF92FF924B01E2
S11307205C0160E070E080E89FE30E9465046B0177
S11307307C016093700070937100809372009093B9
S11307407300A50194010E94940520E030E048EC78
S113075052E40E9465044B015C0120E034E244E76A
S113076059E40E94940520E030E040E85BE30E94F5
S113077094059B01AC0160E070E08FE793E40E9474
S1130780F803609368007093690080936A00909303
S11307906B00A5019401C701B6010E94F80320E093
S11307A034E244E759E40E94940520E030E040E854
S11307B05BE30E9494059B01AC0160E070E08FE76D
S11307C093E40E94F80360936C0070936D0080932F
S11307D06E0090936F0080E091E00E943A03FF90D6
S11307E0EF90DF90CF90BF90AF909F908F9008953F
S11307F05058BB27AA270E9410040C945A050E9443
S11308004C0538F00E94530520F039F49F3F19F449
S113081026F40C9449050EF4E095E7FB0C9443058B
S1130820E92F0E946B0558F3BA1762077307840710
S1130830950720F079F4A6F50C948D050EF4E09557
S11308400B2EBA2FA02D0B01B90190010C01CA0186
S1130850A0011124FF27591B99F0593F50F4503E31
S113086068F11A16F040A22F232F342F4427585F23
S1130870F3CF469537952795A795F0405395C9F73B
S11308807EF41F16BA0B620B730B840BBAF09150F3
S1130890A1F0FF0FBB1F661F771F881FC2F70EC092
S11308A0BA0F621F731F841F48F487957795679565
S11308B0B795F7959E3F08F0B0CF9395880F08F051
S11308C09927EE0F9795879508950E9479040C94C3
S11308D05A050E94530558F00E944C0540F029F433
S11308E05F3F29F00C94430551110C948E050C9430
S11308F049050E946B0568F39923B1F3552391F3DD
S1130900951B550BBB27AA2762177307840738F07A
S11309109F5F5F4F220F331F441FAA1FA9F335D0D7
S11309200E2E3AF0E0E832D091505040E695001C8B
S1130930CAF72BD0FE2F29D0660F771F881FBB1F45
S1130940261737074807AB07B0E809F0BB0B802D23
S1130950BF01FF2793585F4F3AF09E3F510578F04F
S11309600C9443050C948E055F3FE4F3983ED4F356
S1130970869577956795B795F7959F5FC9F7880F23
S1130980911D9695879597F90895E1E0660F771F75
S1130990881FBB1F621773078407BA0720F0621B06
S11309A0730B840BBA0BEE1F88F7E09508950E9431
S11309B0730588F09F5798F0B92F9927B751B0F075
S11309C0E1F0660F771F881F991F1AF0BA95C9F7CF
S11309D014C0B13091F00E948D05B1E008950C94DB
S11309E08D05672F782F8827B85F39F0B93FCCF38E
S11309F0869577956795B395D9F73EF4909580954C
S1130A00709561957F4F8F4F9F4F0895E89409C06B
S1130A1097FB3EF490958095709561957F4F8F4F2D
S1130A209F4F9923A9F0F92F96E9BB279395F69543
S1130A30879577956795B795F111F8CFFAF4BB0FC1
S1130A4011F460FF1BC06F5F7F4F8F4F9F4F16C025
S1130A50882311F096E911C0772321F09EE8872FAF
S1130A60762F05C0662371F096E8862F70E060E06B
S1130A702AF09A95660F771F881FDAF7880F9695E4
S1130A80879597F9089597F99F6780E870E060E08B
S1130A9008959FEF80EC089500240A941616170613
S1130AA018060906089500240A941216130614065B
S1130AB005060895092E0394000C11F4882352F0BE
S1130AC0BB0F40F4BF2B11F460FF04C06F5F7F4F76
S1130AD08F4F9F4F089557FD9058440F551F59F05D
S1130AE05F3F71F04795880F97FB991F61F09F3F17
S1130AF079F087950895121613061406551FF2CF40
S1130B004695F1DF08C0161617061806991FF1CF8F
S1130B1086957105610508940895E894BB276627B6
S1130B207727CB0197F908950E94A7050C945A05DD
S1130B300E944C0538F00E94530520F0952311F0D3
S1130B400C9443050C94490511240C948E050E94C1
S1130B506B0570F3959FC1F3950F50E0551F629F8D
S1130B60F001729FBB27F00DB11D639FAA27F00D02
S1130B70B11DAA1F649F6627B00DA11D661F829F29
S1130B802227B00DA11D621F739FB00DA11D621F0E
S1130B90839FA00D611D221F749F3327A00D611D2B
S1130BA0231F849F600D211D822F762F6A2F11240D
S1130BB09F5750409AF0F1F088234AF0EE0FFF1F40
S1130BC0BB1F661F771F881F91505040A9F79E3F97
S1130BD0510580F00C9443050C948E055F3FE4F3BB
S1130BE0983ED4F3869577956795B795F795E795ED
S1130BF09F5FC1F7FE2B880F911D9695879597F9F6
S1090C000895F894FFCFF3
S10B0C0600004C4201001E0035
S9030000FC
